:020000040000FA
:2000000002006E2255F7160E8F848E8590844BE06016FE8C838D82A803E493A32FF584E694
:20002000080592F01592DEF12222FF022036E4FEF5F6C374109D6005FC8EF3DCFCED600761
:200040002FF81886F3DDFB220278000221A656414C564503024F035002FFFF0237C4020F78
:20006000B8FFFF0234497F600211C9022147787FE4F6D8FD9080007F007E08E4F0A3DFFC19
:20008000DEFA75518875520075817F0200C9020C5AE493A3F8E493A34003F68001F208DF0C
:2000A000F48029E493A3F85407240CC8C333C4540F4420C8834004F456800146F6DFE480E4
:2000C0000B01020408102040809001CDE47E019360BCA3FF543F30E509541FFEE493A36068
:2000E000010ECF54C025E060A840B8E493A3FAE493A3F8E493A3C8C582C8CAC583CAF0A383
:20010000C8C582C8CAC583CADFE9DEE780BE8D828C83E4F508F509F50AF50BF50CF50DF56D
:200120000EF50FE04208A3A37D06E0A36031C50A602DB50A028028C50B6024B50B02801F2C
:20014000C50C601BB50C028016C50D6012B50D02800DC50E6009B50E028004C50F8002DDAD
:20016000C9DBC07D0879088F828E83E7FCE0B50406A309DDF6C322E7F0A309DDFAD322EBD3
:20018000700DE70930C0FDF5E5C2C0DFF580366401701189828A83E0A3000000F5E5C2C042
:2001A000DFF5802164FF700DE30930C0FDF5E5C2C0DFF5801089828A83E493A330C0FDF53D
:2001C000E5C2C0DFF430C0FDE5E5D291224685F29F046F666621C192C104C1004485EA0061
:2001E0000000014485EE000000014185E901C115C113C1144186330000D2152275A40122D8
:20020000027800BB010689828A83E0225002E722BBFE02E32289828A83E49322BB010CE50F
:200220008229F582E5833AF583E0225006E92582F8E622BBFE06E92582F8E222E58229F5CA
:2002400082E5833AF583E49322BB010989828A83F8E028F022500327F722BBFE05F8E32826
:20026000F3228A838982F8E4932822BB010FF8E58229F582E5833AF583E028F0225009C57C
:200280008229F8E58226F622BBFE09C58229F8E22582F222F8EA2583F583E9932822BB01CB
:2002A0000689828A83F0225002F722BBFE01F322F8BB010DE58229F582E5833AF583E8F01A
:2002C000225006E92582C8F622BBFE05E92582C8F222EF8DF0A4A8F0CF8CF0A428CE8DF002
:2002E000A42EFE22BC000BBE0029EF8DF084FFADF022E4CCF875F008EF2FFFEE33FEEC3340
:20030000FCEE9DEC984005FCEE9DFE0FD5F0E9E4CEFD22EDF8F5F0EE8420D21CFEADF07520
:20032000F008EF2FFFED33FD4007985006D5F0F222C398FD0FD5F0EA22C2D5EC30E709B2F0
:20034000D5E4C39DFDE49CFCEE30E715B2D5E4C39FFFE49EFE1202E4C3E49DFDE49CFC8070
:20036000031202E430D507C3E49FFFE49EFE22C5F0F8A3E028F0C5F0F8E582158270021515
:2003800083E038F022A3F8E0C5F025F0F0E582158270021583E0C838F0E82275F008758235
:2003A00000EF2FFFEE33FECD33CDCC33CCC58233C5829BED9AEC99E58298400CF582EE9BB6
:2003C000FEED9AFDEC99FC0FD5F0D6E4CEFBE4CDFAE4CCF9A88222B800C1B90059BA002DB1
:2003E000EC8BF084CFCECDFCE5F0CBF97818EF2FFFEE33FEED33FDEC33FCEB33FB10D7030C
:20040000994004EB99FB0FD8E5E4F9FA227818EF2FFFEE33FEED33FDEC33FCC933C910D70B
:20042000059BE99A4007EC9BFCE99AF90FD8E0E4C9FAE4CCFB2275F010EF2FFFEE33FEED7A
:2004400033FDCC33CCC833C810D7079BEC9AE899400AED9BFDEC9AFCE899F80FD5F0DAE4F2
:20046000CDFBE4CCFAE4C8F922C3E49FFFE49EFEE49DFDE49CFC22EB9FF5F0EA9E42F0E950
:200480009D42F0E89C45F022E8600FECC313FCED13FDEE13FEEF13FFD8F122BB010DE58285
:2004A00029F582E5833AF5830204DB5007E92582F8020884BBFE07E92582F802089022E64A
:2004C000FC08E6FD08E6FE08E6FF22E493FC740193FD740293FE740393FF22ECF0A3EDF034
:2004E000A3EEF0A3EFF022A8828583F0D083D0821204FE1204FE1204FE1204FEE473E493F2
:20050000A3C583C5F0C583C8C582C8F0A3C583C5F0C583C8C582C822BB011A89828A83D08D
:20052000F0D0E0F8D0E0F9D0E0FAD0E0FBE8C0E0C0F00208B75016E9F8D083D082D0E0F997
:20054000D0E0FAD0E0FBC082C0830208A5BBFE16E9F8D083D082D0E0F9D0E0FAD0E0FBC0FF
:2005600082C0830208C922BB010DE58229F582E5833AF5830208AE5007E92582F802089C9A
:20058000BBFE07E92582F80208C0E58229F582E5833AF5830208D2D083D082F8E4937012B6
:2005A000740193700DA3A393F8740193F5828883E4737402936860EFA3A3A380DF8A838966
:2005C00082E473E5522582F582E5513583F583B551048582522210AF06858252F5512285F7
:2005E0008252F551D2AF22E5522582F582E5513583F58322EF4E6012EF60010EEDBB010BA0
:2006000089828A83F0A3DFFCDEFA2289F05007F709DFFCA9F022BBFEFCF309DFFCA9F022AD
:20062000E3F5F009E208B5F06BDFF58067E3F5F009E608B5F05EDFF5805A87F009E608B5A1
:20064000F052DFF6804E87F009E208B5F046DFF6804288828C8387F009E0A3B5F036DFF6FD
:20066000803288828C8387F009E493A3B5F025DFF5802188828C83E3F5F009E0A3B5F014B0
:20068000DFF5801088828C83E3F5F009E493A3B5F002DFF402073B808780E9809080D480E0
:2006A00034801580648074809D80B7808D80A38047806A803202074788848C8589828A832D
:2006C000E493F5F0A30592E493A31592B5F06CDFEFDEED806689828A83E493F5F0A3E20832
:2006E000B5F058DFF4805489828A83E0F5F0A3E608B5F047DFF5804389828A83E0F5F0A3E5
:20070000E208B5F036DFF5803289828A83E493F5F0A3E608B5F024DFF48020800280438880
:20072000848C8589828A83E493F5F0A30592E0A31592B5F006DFF0DEEE80007FFFB5F00261
:200740000F2240027F012288848C8589828A83E0F5F0A30592E0A31592B5F0DFDFF1DEEF05
:2007600080D988848C8589828A83E0F5F0A30592E493A31592B5F0C3DFF0DEEE80BD88F073
:20078000EF60010E4E60BFED2402B4040050ACF582EB2402B4040050A223234582239006CF
:2007A0009773E709F608DFFA8046E709F208DFFA803E88828C83E709F0A3DFFA8032E3090E
:2007C000F608DFFA806EE309F208DFFA806688828C83E309F0A3DFFA805A89828A83E0A3C9
:2007E000F608DFFA804E89828A83E0A3F208DFFA804280D280FA80C680D4805580F28029CE
:20080000801080A680EA809A80A880DA80E280CA802988848C8589828A83E493A30592F0F1
:20082000A31592DFF5DEF3800B89828A83E493A3F608DFF9ECFAA9F0EDFB2288848C858907
:20084000828A83E0A30592F0A31592DFF6DEF480E389828A83E493A3F208DFF980D688F0D9
:20086000EF60010E4E60CD88F0ED2402B4040050C3F582EB2402B4040050B92323458223D0
:200880009007F273ECF608EDF608EEF608EFF622ECF208EDF208EEF208EFF222E6FB08E60D
:2008A000FA08E6F922EBF608EAF608E9F622E0FBA3E0FAA3E0F922EBF0A3EAF0A3E9F02277
:2008C000E2FB08E2FA08E2F922EBF208EAF208E9F222E493FB740193FA740293F922E4F51B
:2008E000F5740F2FF8E2F5F118E2F5F118E2F5F118E2F5F118E2F5F118E2F5F118E2F5F151
:2009000018E2F5F118E2F5F118E2F5F118E2F5F118E2F5F118E2F5F118E2F5F118E2F5F1D7
:2009200018E2F5F122F5E5C2C0EF6033EB701330C0FD0000000000C5E5C2C0F709DFF3D2AC
:2009400091226401701589828A8330C0FD000000C5E5C2C0F0A3DFF5D2912264FF7000D238
:2009600091228D828C83E4F508F509F50AF50BE04208A379097D03E027F7E4F0A309DDF7A7
:20098000DBED8F828E83E0B508028004D3E508F0A37D037909E76001D3F0A309DDF722EF59
:2009A000EDEF2407F8E2F5F318E2F5F318E2F5F318E2F5F318E2F5F318E2F5F318E2F5F322
:2009C00018E2F5F3ED2404F8E2F5F318E2F5F318E2F5F318E2F5F318E2F5F322EFEDEF24C5
:2009E00007F8E2F5F218E2F5F218E2F5F218E2F5F218E2F5F218E2F5F218E2F5F218E2F5FA
:200A0000F2ED2404F8E2F5F218E2F5F218E2F5F218E2F5F218E2F5F222ED600DC32FF874B0
:200A2000109DF5F618A6F3DDFB22050109069501A1018501050719E029E7150025017501DA
:200A4000950881029501750881019505750105081901290591029501750391019506750831
:200A6000150025650507190029658100C005010902A10185020901A1000509190129051593
:200A800000250195057501810295017503810105010930093109381581257F750895038183
:200AA00006C0C00600FF0901A101150026FF00750895400901810295400901910295400996
:200AC00001B102C0FF0B0BFF0A2A79FF0B24FF0AA321FF0B3DFF0AA321FF0B56FF0AA321A5
:200AE000FF0B6FFF0AA3211201000200000040DE2842110100010200010902860005010066
:200B0000A0320904000001030101000921110100012279000705810309000209040100016E
:200B200003000000092111010001222100070582034000060904020001030000000921110D
:200B40000100012221000705830340000609040300010300000009211101000122210007DD
:200B6000058403400006090404000103000000092111010001222100070585034000061E16
:200B800003560061006C0076006500200053006F0066007400770061007200650022035371
:200BA000007400650061006D00200043006F006E00740072006F006C006C00650072001634
:200BC00003FFFFFFFFFFFFFFFFFFFFFFFFFFFFFFFFFFFFFFFFFF0B7FFF0B9DFF0BBF00012C
:200BE000020C0D0E0F08090A0B030405060702000304050607010102000302030405060741
:200C00000001087A6F74217769706530313233343536373839414243444546002E68B10FA0
:200C200087EF2408403B8F7C48174E3756414C5645FFFFFFFFFFFFFFFFFFFFFFFFFFFFFF39
:200C4000FFD2B9758E02E4F5B5C29075E61075C810D2C843B92075A522229141124A8C128D
:200C6000498C91B17FDC7E0512108112133B121FF6D2AF301505124902802E3017292016D9
:200C80000D121FE2500C9085F8E014F06004D12B800812147AC2C81201FC30160F1220122D
:200CA000500A1237AF8005D12B12005E1249AD80C29085157401F090842C74FFF0A3742D31
:200CC000F0A3741EF0A374FFF0A3742CF0A374E7F0A374FFF0A37420F0A3741BF07BFF7A95
:200CE0002D795E7F01122F5A7A4079007D097F81B13E7BFF7A4079037D407F82B13E7BFF56
:200D00007A4079067D407F83B13E7BFF7A4079097D407F84B13E7BFF7A40790C7D407F850D
:200D2000B13E90851374FFF090851FF0E4908514F0FE7FA8FD7B017A8179300205F49084C7
:200D400028EBF0A3EAF0A3E9F0AC07EC547FFF14FE7401A807088002C333D8FC90842BF06D
:200D6000EC30E759908428E0FBA3E0FAA3E0F9EE75F003A42469F582E43485F583EBF0A376
:200D8000EAF0A3E9F0908428E0FBA3E0FAA3E04A4B90C7AC6014E0FF90842BE0FEEF4E9011
:200DA000C7ACF090C7DEE04EF022E0FF90842BE0F4FEEF5E90C7ACF090C7DE806A908428D0
:200DC000E0FBA3E0FAA3E0F9EE75F003A42478F582E43485F583EBF0A3EAF0A3E9F0908435
:200DE00028E0FBA3E0FAA3E04A4B90C7AD6027E0FF90842BE0FEEF4E90C7ADF090C7DFE08D
:200E00004EF0EC75F002A424C5F974C735F08982F58374FFF022E0FF90842BE0F4FEEF5E16
:200E200090C7ADF090C7DFE05EF02230070AC207E4FFF128F10E800C300409C204A200E41E
:200E400033FFF128200202C1F8C202E51F75F024A42422F8E230E107AF1F122B4C8063E51E
:200E60001F75F024A42422F8E25411FFBF0115AF1F1241A9EF600DE51F75F024A42422F838
:200E8000E24410F2E51F75F024A42422F8E2FF5419FEBE110CEF4408F2E51F24FEFF122A06
:200EA00057E51F75F024A42422F8E230E214AF1F12406D500DE51F75F024A42422F8E254D5
:200EC000FBF2AF1F121CF8F10E300309E4FFD1F9400312413A300A097F01D1F94003124156
:200EE0003AE4FF121CF87F01121CF890850BE06007E0FF124106E4F022AE0712455B5009B4
:200F0000746E2FF8E654036003D38001C32212404E90850CEFF064047F0060027F01F16332
:200F2000200A04E4FFF12822908428EFF0600C12404EEF640460047F0180027F00908428C6
:200F4000EFF0A203E4336F6019908428E0FF24FF9203EF60047F01F163908428E0FDE4FF18
:200F6000F18822908429EFF0A20AE4336F6018908429E0FF24FF920AEF60031215BB9084ED
:200F800029E0FD7F01F1882290842AEFF0C2B9C2BDC2ADD209D292ED6009E0FF7D01121294
:200FA000B1800890842AE0FF121231C209A2089292D2B9D2BDD2AD2290C7B6E030E103022F
:200FC00010597F0212385D5073908515E024FE602E04600302105912105A501C90C68074FF
:200FE00001F078817CC6FDFB7A8579177E007F08115E90C7B77409F09085157402F022306D
:201000001033301230C2107E857F0F7C817D007B04120962501F90C6807402F078817CC65C
:201020007D017B017A85790F7E007F0412085E90C7B77405F09085157401F022115A5019BA
:2010400078807CC67D017B017A8579177E007F0812085E90C7B77408F0223011032012023C
:20106000C322C2117E857F177C817D107B0412010E4001223011089085187401F0C322D3FF
:2010800022AB07AA06EB7802C333CE33CED8F9FF7C007D031202E4C3E49FFFE49EF5CB8FC8
:2010A000CAF5CD8FCCEBAE027802C333CE33CED8F9FF7C007D7D1202E4AA06AB07EF24FFBD
:2010C000FDEE34FFFCE4FFAE078D828C83E4FDFC7F0B11E6C2C5EEFD7F0911E6AE83AF828F
:2010E000AD07AC067F0AAB07ECF5ABEDF5ACAF038FAD22E4FDFC7F0B80ECC2B9C290E4F5AC
:20110000C8C2C611F37FFF5131B1017F0131E1E4FF3199E4FF31C2908429EFF0908428E07C
:201120007F0060027F01EF5401C454F0FF908429E054EF4FF0E0FD7F064111908633E06027
:201140002A147029C2907F0151857F027E00316EE4FF31E17F0131997F0131157F0391500A
:20116000908634E0FF122193D2902211FA22AD07AC0631803180ED1D70011C144C70F3228B
:201180007FFA7E00318A7FFA7E000000000000EF1F70011E144E70F22231C2908429EFF014
:2011A000908428E07F0060027F01EF5401C43333335480FF908429E0547F4FF0E0FD7F06AD
:2011C000804F908428EFF07F06C2918FE5C2C030C0FDAFE5E4F5E5C2C030C0FDAFE5D291B2
:2011E00022908428EFF0E4FF31C9908429EFF0908428E0B40107A3E04401F0800790842965
:20120000E054FEF0908429E0FDE4FF8004E0FD7F02C291EF2420F5E5C2C030C0FDAFE5AEBC
:20122000058EE5C2C030C0FD908638E5E5F0D29122908624EFF07F0231C9908625EFF07F0D
:201240000131C9908626EFF0908624E0FF24FA50062407601B80207401A807088002C33301
:20126000D8FCF4FD908625E05DF0A3E05DF08007E4908625F0A3F0908625510D908626E093
:20128000FD7F01808C90862BEFF0E4FF31C990862CEFF090862BE0B40107A3E04402F08091
:2012A0000790862CE054FDF090862CE0FDE4FF4111908614EFF0A3EDF07F0231C990861640
:2012C000EFF07F0131C9908617EFF0908614E0FF24FA50062407603C80537401A8070880E6
:2012E00002C333D8FCFD908616E04DF0908615E06008908617E04DF08033908614E0FF74EF
:2013000001A807088002C333D8FCF4FF908617E05FF08019908616743FF0908615E060089F
:20132000908617743FF08005E4908617F0908616510D908617E0FD7F0141111248C17E0058
:201340007FD87D007BFE7A0079001205F478007C007DFE7BFF7A0C791C7E007F1012085EB9
:20136000751F021244D21240A0B119C290A2099292C2087F05123B6E7FFF51317FFF123BFE
:201380008D7F01B15A7F01B12E7BFF7A00794E7F0691017BFF7A00794EE4FF91017B017ADE
:2013A00086790F7F01910190860FE04402FD7F0271F390860FE04403FD7F0371F390860F8C
:2013C000E04404FD7F0471F390860FE04405FD7F0571F37F039150E4FFF1B57F02123B26EE
:2013E0007F0131E1916FD2B9D2BDD2ADC209A208929222EF24F950028006EF240AFF5111A5
:2014000022908429EBF0A3EAF0A3E9F0908428EFF014600A24FB5021600424067031123BF4
:2014200083908609EFF0908428E0242AFFA3E0FBA3E0FAA3E0F902258D908428E0240AFF4E
:20144000A3E0FBA3E0FAA3E0F9120203FD51112290862D31C590862EEFF090862DE05403A7
:2014600025E0FFA3E054F94FF0E0FD7F0641117D707F075111EF5470FF22D310AF01C3C0E6
:20148000D0C290A2099292C208B119E4FF91C8916FC201C203C20A7FFF5131755302E55335
:2014A00075F024A42422F8E4F2E55375F024A42423F8E4F2AF53B1880553E553C394064009
:2014C000DD71E6D0D092AF22EF60102006137F0151857F0A7E00318AD20622E4FF5185C2B0
:2014E0000622D310AF01C3C0D0200810B119B1017F0191C8D292D290D20871E6D0D092AF79
:2015000022916FB10FC2917FE1122701D29122C2917FE2122701D29122A2AFE433C2AFC269
:20152000B9C2BDC2ADD209D29224FF92AF22908428EFF07F1D31C9908429EFF0908428E056
:201540007F0060027F01EF540125E0FF908429E054FD4FF0E0FD7F1D4111908428EFF07FD0
:201560001D31C9908429EFF0908428E07F0060027F01EF540125E025E0FF908429E054FB02
:201580004FF0E0FD7F1D4111D310AF01C3C0D0908639EFF0121FBE908639E0FFE4FB7D05AF
:2015A0001224F9908639E0FF0B7D0A1224F9908639E0FF1240AFD0D092AF227BFE7A00796F
:2015C000347D081249AFE4FFB1887F01B188C20522908440745CF0C20F786FE620E102E1F4
:2015E000B4E0F8E67002E1B4E527703FE528C3940840387F2A908444EFF07A00F97B0012F3
:201600004440908445EEF0A3EFF04E7002E1B4908445E0FEA3E0AA06F97BFF78247C007DC6
:20162000FE7E007F1012085ED20522E527B401073003047F00800FE52764026002E1B42098
:201640000502E1B47F241208DE752518752634122371EF7002E1B4E528C3941150028034BB
:20166000908443742AF0908440E0F8E6FF121E80EF2401FFE43E908441F0A3EFF0A3E0F84D
:201680007C007D007B017A86790F7E007F0512077EEF6002A1BB908441E0FEA3E0FF240826
:2016A000F582E43EF583E05407F512AA06A9077B01C00175F024A42410F9E4A801FC7DFEDC
:2016C000D001FE7F0412085E908443E0240DF97A007B00C001E51275F024A42414F9E4A848
:2016E00001FC7DFED001FE7F0412085EB1BBE5277BFEB401067A00790080047A007924C0AE
:2017000003C002C001E51275F024A42400F9E4A801FC7DFED001D002D003FE7F1012085E83
:20172000AF12B188AF121244E5E527B4010EE51275F024A42422F87421F2800CE51275F013
:2017400024A42422F87401F2E51275F024A42423F87429F2908443E02405F97A007B00C01C
:2017600001E51275F00FA424B1F9748435F0A801FC7D01D0017E007F0812085EE51275F0A1
:201780000FA424B9F582E43484F5831204E700000000E51275F00FA424BDF582E43484F539
:2017A00083E4F07D01AF1251B1D207D20190850BE04404F02231C2908429EFF0908428E060
:2017C000600C24FE7015908429E044208006908429E054DFF0E054F7F0800B908429E05498
:2017E000DFF0E04408F0908429E0FD7F064111E490849EF090849EE0FFC39404501E111DFF
:201800005012E02402FF7B017A8579F29085FD7406F051FA90849EE004F080D822EF75F060
:2018200024A4246AF8E21322EF7E0060047F0180027F0074C02FF58274C63EAF829084A2B8
:20184000F0A3EFF09084A2E0FEA3E0FFF5828E83A3E02402F515ED14F516E515D3944040D8
:20186000037515408F828E83E0908516F030150F9084A2E0FEA3E0AA06F97B0102272F9006
:2018800084A2E0FEA3E0FFF5828E83E012059719518219518319518419518919518A195194
:2018A0008B19518C19CE8F18F09018E19619DA9B1AD5A119CEA219CEA319CEA419CEA519A9
:2018C000CEA61951AA1951AB192BAD1A01AF1A3BB01A7FB11AA9B21AB0B31AB9B4000019CF
:2018E000B1EF2402FFE43EFE12491312400F41D59084A2E0FEA3E0FFF5828E83A3E0FDB44C
:2019000004267C00C004C005EF2402FFE43EA807FC7D017BFF7A0C7903D007D00612077E79
:20192000EF700512277941D57F00229084A2E0FEA3E0FFF5828E83A3E06402600241D58F4C
:20194000828E83A3A3E07F0060027F0112453641D5AF16111D400241D5908513E06516708C
:201960000241D59084A2E0FCA3E0FDF5828C83E0FF908514E0B5070890851FE06516602EEE
:20198000E5162402FFAA04A90551F2EF60209084A2E0FEA3E0F5828E83E0908514F090856C
:2019A0001FE516F0908513E0B5160374FFF07F0022AF16111D500751E3EF7002FF2290842F
:2019C000A2E0FEA3E0F5828E83E0649541D5AF16111D400241D551E341D590C6C1E0645449
:2019E000600241D5A3E06445600241D5A3E06453600241D5A3E06454600241D51201F94119
:201A0000D59084A2E0FEA3E0FFF5828E83A3E0B40426EF2402FFE43EA807FC7D017BFF7A9F
:201A20000C79077E007F0412077EEF700B12147A1242EF1214E241D57F00229084A2E0FEE2
:201A4000A3E0FFF5828E83A3E0B41830EF2402FDE43EFAA9057B01C003C002C001EF240A42
:201A6000FFE43EFAA9079085AEEBF0A3EAF0A3E9F0D001D002D00312425680597F002290DA
:201A800084A2E0FCA3E0FDF5828C83A3E0B402168D828C83A3A3E0FF8D828C83A3A3A3E0C5
:201AA000FD123FEF802F7F0022AF1612453E8025AF161242017D028017AF16111D40047DB6
:201AC00001800DAF16122A4250047D0380027D02AF16122A6EE4908514F090851F74FFF05D
:201AE0007F0522E5162402FF9084A2E0FCA3E0AA04F97B019085FDE515F0D310AF01C3C0D6
:201B0000D09085F9EFF0A3EBF0A3EAF0A3E9F0C21B9085F9E02474F8E69085FEF09085FD3B
:201B2000E0D3941B40309085F9E0FFA3E0FBA3E0FAA3E0F99085D9741BF0A37402F071B3D5
:201B4000EF60349085FBE475F01B12036F9085FDE024E5F080C79085F9E0FFA3E0FBA3E0EA
:201B6000FAA3E0F9A3E09085D9F0A37403F071B3EF60047F0180379085FEE0FF6027918D3F
:201B80008F828E83E0FF919D9085FEE0FF918D8F828E83E4F09085FEE0FF9085F9E0247498
:201BA000F8A60780079085F9E0FFF1BE7F00D0D092AF22D310AF01C3C0D09085D5EFF0C26A
:201BC00018F19F9085DBEFF0600B9085D9E06005D3942040047F0081889085DBE0FF918DB0
:201BE0009085DDEEF0A3EFF0F1809085DCEFF0A3E0FCA3E0F5828C83A3A3A3EFF0700B90F7
:201C000085DBE0FFD1917F00807E9085D9E0FF7E00C006C0079085DCE0FFD180A807AC064C
:201C20007D01D007D00612085E9085D9E0FF9085DDE0FCA3E0FDF5828C83A3EFF09085DAEF
:201C4000E08D828C83A3A3F08D828C83E4F09085D5E02474F8E6FF9085DB6017E0FD918DBD
:201C60008F828E83EDF09085DBE0FF9085D5E024748010E0FF9085D5E0FE247AF8EFF6FF83
:201C800074742EF8A6077F01D0D092AF22EF25E025E024D4F582E43483AF82FE22AD07ED11
:201CA0006017FF918D8F828E83E090863BF0AF0591BA90863BE0FD80E622D310AF01C3C082
:201CC000D0AC07EC602DC219918D908631EEF0A3EFF0F5828E83A3A3A3E0FF6012D1AE9097
:201CE0008631E0FEA3E0F5828E83A3A3A3E4F0AF04D191D0D092AF22908428EFF075F024CB
:201D0000A4241D90842CF0F8E27F0230E0027F0190842EEFF0FE908428E0FF246EF8E65EB9
:201D20006002C17812456590842DEFF07002C178908428E06003B401067E007F0180047E47
:201D4000007F00EE4F24FFB3920CD20B300C0E90842CE0FF12459CE0F8E213920BA20BE41F
:201D60003325E0FF908428E025E025E024562F90842BF090842DE0FF918D908429EEF0A332
:201D8000EFF0C2B9C2BDC2AD908428E075F024A42418F8E2C45470FD8F828E83A3A3E04D82
:201DA000F527300B03432704908429E0FEA3E0FFF5828E83A3E0F528FD7C00C004C0058F05
:201DC00082D179AA06A9077B01782A7C007D00D007D00612085E300C23908428E075F02497
:201DE000A42400FF1208DE90842CE0F525908428E075F024A42410F5261224AF852729E5B3
:201E0000282401FFE433FEC006C007908429E0FEA3E0F582D179A807AC067D017B007A00A1
:201E20007929D007D00612085E908429E0FEA3E0FFF5828E83A3A3A3E0FD90842BE0F8A633
:201E400005E52804FDE804F8A6058F828E83A3A3A3E4F07FFB300B027FF7908428E0246E26
:201E6000F8F9E75FFF90842EE04FF690842DE0FF91BAD2B9D2BDD2AD228E83A3A3A3E0FFC6
:201E800075F020EFA424B8F582E5F03481AF82FE22D310AF01C3C0D0AD07C225918D8F824C
:201EA0008E83E550F0AF058F50D0D092AF22D310AF01C3C0D0AD07C223D1808F828E83E57F
:201EC0004FF0AF058F4FD0D092AF22908440EFF075F024A42422F8E230E702D322F1808FA0
:201EE00014E5147002C322E4F513908440E075F00FA424BEF582E43484F583E5822513F545
:201F000082E43583F583E0F512704FAF14D1808F828E83E528F0FF7E00C006C007AF14D1B4
:201F200080EF2401FFE43EA807FC7D017B007A00792AD007D00612085E908440E075F00F5E
:201F4000A424BEF582E43484F583E5822513F582E43583F583E514F0D3220513E513C39401
:201F6000024087908440E075F024A42422F8E24480F2AF14D1AE908440E0FF1240AFD322F6
:201F8000D310AF01C3C0D0C222AD4FED600AFFD1808F828E83E0F54FAF05D0D092AF22D304
:201FA00010AF01C3C0D0C224AD50ED600AFF918D8F828E83E0F550AF05D0D092AF22D310D6
:201FC000AF01C3C0D0AB07C21A747A2BF8E6FF919D747A2BF8E4F674742BF8E4F6D0D0924A
:201FE000AF22C20BE4FEAF06111D720B920B0EEEB404F3A20B22C2171214E2D2C8C2162279
:20200000EF24FF9216D2179085F874F8F011120217EF300104C201D322C32290FFFF120512
:20202000C3EFF075D901855183855282E0FF11009000010205C3C0E0C0F0C083C082C08598
:20204000C084C0925392FEC0D075D000C000C001C002C003C004C005C006C007C2C61184F9
:20206000120003D007D006D005D004D003D002D001D000D0D0D092D084D085D082D083D08F
:20208000F0D0E032C2B9C2BDC2AD90850DE004F0B40702E4F030085ED209D292C290A209AC
:2020A0009292C20890850DE02418F8E6FF310312150512150FD292D290D208D202051FE504
:2020C0001FB40603751F02785506E6B40802E4F67855E6FFC39406501DEF75F024A424235E
:2020E000F8E2601214F2700E7855E675F024A42422F8E24402F2C209A2089292D2B9D2BD25
:20210000D2AD2290863AEFF0E4F554E55425E02453F582E43400F583E493FF90863AE0D38D
:202120009F501AE55425E02454F582E43400F583E493FF12145090863AE0FF80560554E5AA
:2021400054C3940340C522C0E0C0F0C083C082C085C084C0925392FEC0D075D000C000C0C2
:2021600001C002C003C004C005C006C00720C8021184D007D006D005D004D003D002D00178
:20218000D000D0D0D092D084D085D082D083D0F0D0E032EF547FFF908637E054804FF0E09C
:2021A000FD7F05021211C0E0C0F0C083C082C085C084C0925392FEC0D075D000C000C00190
:2021C000C002C003C004C005C006C00731EFD007D006D005D004D003D002D001D000D0D008
:2021E000D092D084D085D082D083D0F0D0E032C2B9C2BDC2ADD209D292F10BEF20E6026191
:2022000017540EFFC313F5101200668F11E511D39420400261177B007A00792971FCE5290A
:2022200030E206E4FB7D0180047B017D02AF10B129852927E51114F528E4F529E510C394C7
:202240000250026106E51075F024A42422F8E220E0026106E51075F024A42418FD7FD8ABBB
:20226000271245CD400241E7E51075F024A42400FF1208DE7525D87167EF6063D20EE52784
:20228000540314601414601714601D2403701EE51024FEFF123BB58014AF10D148800EAFCD
:2022A00010121ECB920E8005AF10123EE47124300E1FE51075F024A42418F9E4A801FC7DAC
:2022C000FE7BFE7A0079D8FE7F0512085EAF109109E51075F024A42423F87429F280389031
:2022E000843F7407F08030E51075F024A42400FF1208DEE51075F024A42418F5257167EF84
:20230000601571248011E510B401051215D18007E5107003120029C209A2089292D2B9D25B
:20232000BDD2AD22AD27AF10908440EFF0ED30E219E0FF246EF8740446F6746E2FF8E63025
:20234000E324E0FF7B017D0A801A908440E0FF246EF8740846F6746E2FF8E630E208E0FF9D
:20236000E4FB7D0591F922E51075F024A42410F526E528D3941F5007E528C3940550037FBA
:20238000002274262528908447F075F60CE0FF2403F8E6F5F3EF2402F8E6F5F3E0FF04F8F0
:2023A000E6F5F3A807E6F5F391DC75F60C908447E0FF2403F8A6F3EF2402F8A6F3EF04F86B
:2023C000A6F3A807A6F374FC2528F5289168B19E75F60C908447E0FF2403F8E665F3701666
:2023E000EF2402F8E6B5F30EE004F8E6B5F307A807E665F360037F00227F0122AE07C29128
:202400007F61F101AF06020925AA07A2AF920FC2AFE4FB7D019122AF020B0D9122A20F9222
:20242000AF22AC07746E2CF9E75D603BEC25E025E02456F8EB25E028F8E6FF908440F0127F
:202440001E80908441EEF0A3EFF0EC75F024A42418F8E2C45470FF908441E0FCA3E0F58248
:202460008C83E0548F4FF0227F0191A6E528D394107F2A40117D1091887F0291A67F3AE5F8
:202480002824F0FD8002AD2890862FEFF0A3EDF012002E75E80DE5E820E0FB90862FE0FF72
:2024A000A3E0FD020A19E4F5F58FF275E81022B19E91DC742A2528FF75F60C2403F8A6F3C4
:2024C000A807E82402F8A6F3A807E804F8A6F3A807A6F3916874042528F52822E4F5F5F57A
:2024E000F2F5F2AD25AF261209DC75F20175E81075E80DE5E820E0FB22AC07AA05EC25E0E9
:2025000025E02456F8EB25E028F8E6FF6012121EAEEC25E025E02456F8EB25E028F8E4F6AD
:20252000746E2CF9EAF457F722908440EFF0E0FF246EF9E75D6029EF25E025E02456F8EB86
:2025400025E028A3F0F8E6FF121E80AA06A9077B01908440E0FFA3E004F8E69084468020C0
:20256000908440E0FD75F024A42418F8E2FEC45470A3F0AF057B017A847941908446740117
:20258000F0EF44A8FF908446E0908609F0C2918FE5C2C030C0FD908609E0FF02017FE4F599
:2025A000F5F5F2F5F2F5F2F5F2F5F2F5F2F5F2F5F2F5F2F5F2F5F2F5F2F5F2F5F2F5F2F5A8
:2025C000F275E810F5F68528F3F5F3AD25AF2612099F75F34975E801E5E820E0FBE4F5F622
:2025E000F5F3F5F3F5F3F5F3F5F3F5F3F5F3F5F3F5F3F5F3F5F3F5F3F5F3E5275483F5F348
:2026000075F301E4F5F375E801E5E820E0FBE528D3941040237F2A7D1012002E75E801E5BF
:20262000E820E0FB7F3AE52824F0FD12002E75E801E5E830E01180F97F2AAD2812002E75A8
:20264000E801E5E820E0FB22908440EFF0E5287002C1F1E52A24FC605924036002C1F1E53B
:202660002864116002C1F17F2A908441EFF004F97A007B00C001908440E075F024A4240094
:20268000F9E4A801FC7DFED001FE7F1012085E908440E0FF121588908440E0FF1244E59087
:2026A0008440E075F024A42422F8E24404F254EFF222E528C3940840387F2A908441EFF0D7
:2026C000FB2404F81204BF908440E0FA75F00FA424B9F582E43484F5831204DBEB04F8E69E
:2026E000FFEA75F00FA424BDF582E43484F583EFF022908627EEF0FCA3EFF0FD7F0802103D
:20270000E68FE5C2C030C0FDAFE5227D707F07121211EF5470908440F0E0FFC0077F07125D
:2027200011C9EF540FFED0E04EFF908440F0221202032464601624FE600E0470159000024C
:2027400012021CFFF164800AF15580067F207E03D1F27F0522908633E0B40107E490863304
:20276000F0D21422908633E06003B4010B9086337401F0A3EFF0D2142278A47C847D017BC8
:20278000FF7A0079487E007F0312085EC2AF90C7D6E04408F07F407E06D1F2E4FFF1B47BC4
:2027A000017A8479A49085D0F0A37403F0E4FFFEF1D780FEAE8E758E01A2AF92D5C2AF7519
:2027C000FAAA75FA55D2FD8FFA20FCFDC2FDA2D592AFAF068F8E22D310AF01C3C0D09085BA
:2027E000CDEBF0A3EAF0A3E9F09085D4E58EF0758E01A2AF92D5C2AF75FAAA75FA55D2FD13
:202800009085D2EEF0A3EFF09085D074FFF5F012038545F0602A9085CDE0FBA3E475F00131
:20282000120385A9F0FA120203FF9085D2E475F00112038585F082F583EFF030FCCA80FBCB
:20284000C2FDA2D592AF9085D4E0F58ED0D092AF228F828E83E0FF229084AE7401F0A37451
:2028600085F0A37420F09084AEE0FBA3E0FAA3E0F974A112029E9084AEE0FBA3E0FAA3E0C2
:20288000F990000174221202B09000041204CB90000212049BE92406F9E43AFA9084ABEBCE
:2028A000F0A3EAF0A3E9F0E4FDD2FB740B2DF582E433F583E09084AAF0C2FBE0FFC4540F7E
:2028C000900C0B93FE9084ABE0FBA3E0FAA3E0F975F002EDA4F58285F083EE1202B0EF54D1
:2028E0000F900C0B93FF9084ABE0FBA3E0FAA3E0F975F002EDA42401F582E435F0F583EFF9
:202900001202B00DEDB405A19084AEE0FBA3E0FAA3E02410F9E43AFA9084ABEBF0A3EAF0A6
:20292000A3E9F0E4FDD2FBED2400FFE43401FE11519084AAEFF0C2FBE0FFA3E0FBA3E0FAB0
:20294000A3E0F98D82758300EF1202B0EF6003B4FF149084ABE0FBA3E0FAA3E0F98D827511
:202960008300E40202B00DEDB414BA229084A4EBF0A3EAF0A3E9F0ED14F515301504115855
:20298000411590851F74FFF0E4908514F0908513E0B5150574FFF0807C7E007F407D007BE2
:2029A000017A8579201205F4908516E0908520F0246C602824FE605D146021240624F75022
:2029C0000A24F9602824ED6028804A9085207494F0A37402F0A3F0E4A3F080399085207443
:2029E00094F0A37402F0E4A3F0A3F08028115880249085217401F0AF1512181D4006A37488
:202A000001F08011AF15514290852250057403F080037402F07B017A857920C003C002C0A8
:202A2000019084A4E0FBA3E0FAA3E0F91205189084A7E0FBA3E0FAA3E0F9744012029E7F66
:202A40000422EF75F024A4246AF8E27F0020E5027F01EF24FFB322AE07EEC39404500EAFD4
:202A60000651427D0250027D03AF06516E22D310AF01C3C0D0908619EDF0908618EFF024B3
:202A800002547F75F080A4FFC374009FF974C795F0AF0190861AF0A3EFF0908618E02402C4
:202AA000547F75F002A424B5F974C735F0FEAF0190861AE0FCA3E0FDF5828C837401F08D54
:202AC000828C83A3E4F08D828C83A3A37403F08D828C83A3A3A37401F0908619E0FDA3E028
:202AE000FAA3E02404F582E43AF583EDF08F828E837440F0D0D092AF22908429EFF0C3940B
:202B0000045048908429E0FF718D908429E0FF7D01516E90851FE0FF908429E0FEB5070BB1
:202B200090851F74FFF0E4908514F0908513E0B5060374FFF07E007F017D00908429E0241C
:202B400060F9E43485FA7B011205F422908428EFF0A2AF920BC2AF75F024A42422F8E4F221
:202B6000EF75F024A42423F8E4F2FD120F88908428E0FF121588A20B92AF90850BE044047E
:202B8000F01215BB908428E024FEFF41F9D310AF01C3C0D090860AEFF02402547F75F08029
:202BA000A4FFC374009FF974C795F0AF01A3F0A3EFF090860AE02402547F75F002A424B541
:202BC000F974C735F0AF0190860DF0A3EFF090860AE0C39404400281E290860BE0FEA3E0D5
:202BE000FFF5828E837401F08F828E83A3E4F08F828E83A3A304F08F828E83A3A3A3743C39
:202C0000F00549E549700E054AE54A7008054BE54B7002054C90860BE0FEA3E0FF2404F5F3
:202C200082E43EF583E549F0EF2405F582E43EF583E54AF0EF2406F582E43EF583E54BF0C8
:202C4000EF2407F582E43EF583E54CF07E007F2A7D0090860CE02408FB90860BE03400FA2C
:202C6000A9037B011205F490860DE0FEA3E0F5828E837440F07E007F2AC006C0077D0090B0
:202C8000860AE075F02AA42430F9748135F0FA7B01D007D0061205F47E007F08C006C0076A
:202CA0007D0090860AE075F008A42410F9748135F0FA7B01D007D0061205F47E007F04C050
:202CC00006C0077D0090860AE075F004A42400F9748135F0FA7B01D007D0061205F4D21155
:202CE000D210D0D092AF2290FFFF1205C39085157401F0855183855282E4F0855183855242
:202D000082E0FFC39404500D718D855183855282E004F080E6121FF69000010205C390FF9F
:202D2000FF1205C39085157401F0855183855282E4F0855183855282E0FFC39404500D71EB
:202D40008D855183855282E004F080E6B157121FF69000010205C390862A74FFF02290FF1C
:202D6000FD1205C3EBF0A3EAF0A3E9F090FFFF1205C37B01855183855282A982AA8390FF2B
:202D8000FD1205C3EBF0A3EAF0A3E9F090000A1205E7E0FBA3E0FAA3E0F990FFFD1205C3B6
:202DA000EBF0A3EAF0A3E9F090000A1205E7E0FBA3E0FAA3E0F990FFFD1205C3EBF0A3EA05
:202DC000F0A3E9F090000A1205E7E0FBA3E0FAA3E0F9123867BF010A855183855282E0FF0F
:202DE000E10A855183855282A3E0FBA3E0FAA3E0F912020320E502E10890000112021C24D3
:202E0000F77002C1B224086002E10490000212021C6403704490000312021CFF900004121E
:202E2000021CFD9000041205E7E0FBA3E0FAA3E0F9C003C002C0019000071205E7E0F9A3BA
:202E4000E0FAA3E09084A7C9F0A3EAF0A3E9F0D001D002D003316CE10A855183855282A355
:202E6000E0FBA3E0FAA3E0F990000212021CB4013D90000412021CFF9000041205E7E0FB9A
:202E8000A3E0FAA3E0F9C003C002C0019000071205E7E0F9A3E0FAA3E09084A6C9F0A3EA85
:202EA000F0A3E9F0D001D002D003F11D805C7F008058855183855282A3E0FBA3E0FAA3E0BF
:202EC000F990000212021CB4031390000312021CFF90000412021CFD121828802D85518392
:202EE000855282A3E0FBA3E0FAA3E0F990000212021CB4020B90000412021CFFF110800A31
:202F00007F0080067F0080027F0090000A0205C390C6C0E0C36001D392857F05229084A367
:202F2000EBF0A3EAF0A3E9F0E490850EF07B017A85790EC003C002C0019084A3E0FBA3E069
:202F4000FAA3E0F91205189084A6E0FBA3E0FAA3E0F9740112029E7F0422908429EBF0A3B7
:202F6000EAF0A3E9F090858774FFF0A3740AF0A374E7F090858A74FFF0A3740AF0A374F9DA
:202F8000F090858D74FFF0A3740BF0A374D5F09085907404F0A314F0A37409F0A37404F07F
:202FA0009085977402F0E4908594F09085AAF0908595F0A3F0908429E0F9A3E0FAA3E09000
:202FC0008598C9F0A3EAF0A3E9F090842CE0F9A3E0FAA3E090859BC9F0A3EAF0A3E9F09017
:202FE000842FE0F9A3E0FAA3E090859EC9F0A3EAF0A3E9F0908432E0F9A3E0FAA3E09085AC
:20300000A1C9F0A3EAF0A3E9F0EF601290C7D6E04408F07F327E0012116EE054F7F0D2BB4B
:20302000D2BC90C7AE741DF090C7AC7401F090C7A9741FF090C7AD7401F090C7AA741FF0A4
:2030400090C78104F0A37428F0A37430F0A37438F0A37440F090C7887424F0A37420F0A387
:203060007428F0A37448F0A37468F0A37488F090C7DE7401F0A3F0E4A3F0A3F022EF547F5C
:203080001425E0FEEF30E70BEE7E0024B6F9EE34C7800BAF067E0074C62FF9EE34C7AF0127
:2030A00090849EF0A3EFF0ED90849EB4010CE0FEA3E0F5828E837401F022E0FEA3E0F58244
:2030C0008E83E4F02290C7E8E09085A4F090C7E9E09085A5F090C7EAE09085A7F090C7EB48
:2030E000E09085A6F090C7ECE09085A8F090C7EEE09085A9F090C7EFE0D3940040069085BA
:20310000A974FFF09085A4E05460600221FFA3E0B40B00400221FD90311EF8282873023165
:20312000410231430231FD0231430231FD02319002313F0231FD02319C0231B90231EE4180
:20314000AAC1D99085A4E024FE60232402703F9085A7E0B401169085A5E0908594B40106B3
:20316000E054FDF08068E04402F08062411D9085A7E070189085A5E09085A8B40106E0FFDB
:20318000E4FD8004E0FF7D01117D8042411D411D9085977403F0E4908595F022908597E022
:2031A00024FC600E047010E490C700F090C7B504F022908595803A80649085A7E014601543
:2031C0000470299085977403F0E4908595F090C7B47402F0229085977404F0908594E0444D
:2031E00001F0A37401F090C7B404F022802F908596E090C700F090C7B57401F022801E9073
:2032000085A4E0FF5460FEBE20139085A9E0600BEF20E70790C7C574FFF022800790C7B4CA
:203220007411F0227B017A8479A190FFFD1205C3EBF0A3EAF0A3E9F07B017A84799E90FF09
:20324000FD1205C3EBF0A3EAF0A3E9F07B017A8579A4C002908598A3E0FAA3E0F5828A8338
:20326000D0021205C1EF14602C14603014603A24FE602204702D90849EE0FBA3E0FAA3E0F1
:20328000F9A3E0FF9085A9E0FEC39FAD075002AD06719B61BF90C7B47402F02290C7C574AD
:2032A000FFF02290C7B47411F0229085A6E024FE602A14604224FA4002619224086002611C
:2032C00099908587E0FBA3E0FAA3E0F99085A9E0FFC394127D125002AD07618E90858AE0DC
:2032E000FBA3E0FAA3E0F99085A9E0FFC394867D865002AD07618E9085A7E0FC70167B01CE
:203300007A8579909085A9E0FFC394047D045002AD07807AEC14C39403507790858DE0FB8E
:20332000A3E0FAA3E0F99085A7E0FF75F003A424FDF582E5F034FFF583120567C003C002D2
:20334000C00190858DE0FBA3E0FAA3E0F9EF14FF75F003A4F58285F083120567120203FE26
:203360009085A9E0FDC39E5002801D90858DE0FBA3E0FAA3E0F975F003EFA4F58285F08382
:20338000120567120203FFFDD001D002D003719B802D90C7B47411F0224124908564EBF012
:2033A000A3EAF0A3E9F0A3EDF0908587E0FBA3E0FAA3E0F990000712021C908568F022903E
:2033C0008567E0FD70219085AAE0B4010890C7B4E04410F0229085AA7401F0E490C7B5F0E2
:2033E00090C7B47402F022908568E0FFEDC39F5007908567E0FF8000E4FEEEC39F50239028
:203400008564E0FBA3E0FAA3E0F98E8275830012021CFD74002EF582E434C7F583EDF00E5F
:2034200080D8908568E0FEEFC39E50069085AA7401F090C7B5EFF0FD908565E48DF0120337
:203440006F908567E0C39FF022C0E0C0F0C083C082C085C084C0925392FEC0D075D000C005
:2034600000C001C002C003C004C005C006C00790C7A8E012059734AD0034B70434BF083464
:20348000D80C34E21034EC1834F61C35052035842435052835842C3505303584343505385D
:2034A00035843C3505403584440000361D90C7AB7401F011C5C11D90C7AB7402F0C11D905C
:2034C000C7AB7404F0908564E4F0A3F0A3F0A3F0A3F09085AAF0C11D90C7AB7408F0D19B12
:2034E000C11D90C7AB7410F0D13EC11D90C7A97401F071BFC11D90C7AA7401F0908567E452
:20350000F05124C11D90C7A8E024E8131313541F908496F0E0FF7401A807088002C333D8DC
:20352000FC90C7A9F0EF547F75F002A424B4F974C735F0AF01908498F0A3EFF0908496E049
:20354000547F75F080A4FFC374009FF974C795F0AF0190849AF0A3EFF0908496E0547F75DF
:20356000F002A424B5F974C735F0AF0190849CF0A3EFF0908496E075F003A42466F582E436
:203580003485807990C7A8E024E4131313541F908496F0E0FF7401A807088002C333D8FCF5
:2035A00090C7AAF0EF547F75F002A424C4F974C735F0AF01908498F0A3EFF0908496E0753F
:2035C000F080A4FFC374C09FF974C695F0AF0190849AF0A3EFF0908496E075F002A424C53C
:2035E000F974C735F0AF0190849CF0A3EFF0908496E075F003A42475F582E43485F583A342
:20360000E0FAA3E0F91205BD908497EFF0A3E0FCA3E0FD90849CE0FAA3E0FBD16AD007D00D
:2036200006D005D004D003D002D001D000D0D0D092D084D085D082D083D0F0D0E03290858E
:20364000977402F0E4908595F0A3F0908594F090859BE0FBA3E0FAA3E04A4B600C90859B87
:20366000A3E0FAA3E0F91205BD22A9078B828A83E9B4FF0474FFF022E930E7088D828C8346
:203680007401F022E95460FFBF60088D828C837402F022E97002F022E9F022E4FD90859448
:2036A000E054FBF0908597E0B40408908594E030E1010D9085977405F09085A1E0FBA3E0CE
:2036C000FAA3E04A4B6011AF059085A1A3E0FAA3E0F5828A831205C122908597E06403701C
:2036E000269085A8E06002E1A890858AE0FBA3E0FAA3E0F990000712021C5440C413135410
:203700000390C701F0E19B908597E064046002E1A890C701F09085A4E0247F603F14603F2D
:2037200024026002E1A6908594E030E10890C7007402F08005E490C700F090C700E0FF90A5
:20374000858AE0FBA3E0FAA3E0F990000712021C5440C413135403FEEF4E803FE4803C90C0
:2037600085A8E030E70D547F75F002A424B4F974C7800F9085A8E0547F75F002A424C4F943
:2037800074C735F0AF0190849EF0A3EFF090849EE0FEA3E0F5828E83E0540190C700F0904E
:2037A000C7B57402F022800090C7B47411F022908594E030E10D75A0407F017E0012116E58
:2037C000E4F5A022C0E0C0F0C083C082C085C084C0925392FEC0D075D000C000C001C002A3
:2037E000C003C004C005C006C00790C7D6E030E7267480F0908594E030E12390C7D6E044B4
:2038000002F00000E054FD4401F07F077E0012116EE054FEF08007908594E04404F090853C
:2038200094E090859730E0057404F080037402F090859EA3E0FAA3E0F91205BDD007D006D5
:20384000D005D004D003D002D001D000D0D0D092D084D085D082D083D0F0D0E03290862A47
:20386000E05FC36001D32290FFFD1205C3EBF0A3EAF0A3E9F090FFFF1205C385518385521E
:2038800082E4F090000A1205E7E0FBA3E0FAA3E0F9E412029E855183855282A3E0FBA3E01D
:2038A000FAA3E0F990000112021C6406600221CA90000212021C24DF7002214914600261A2
:2038C000188551838552827401F0A3E0FBA3E0FAA3E0F990000412021C75F007A424C7F58E
:2038E00082E5F0340AF583E493FB740193FA740293F9C003C002C0019000041205E7E0FB92
:20390000A3E0FAA3E0F9120518855183855282A3E0FBA3E0FAA3E0F990000412021C75F02D
:2039200007A424CAF582E5F0340AF583E493FF7E0090000512021CFD7C00C3EF9DEE9C5091
:20394000028076AE04AF0580708551838552827401F0A3E0FBA3E0FAA3E0F99000041202E3
:203960001C75F007A424C4F582E5F0340AF583E493FB740193FA740293F9C003C002C00175
:203980009000041205E7E0FBA3E0FAA3E0F9120518855183855282A3E0FBA3E0FAA3E0F969
:2039A00090000512021CFF7E00C374099FE49E50087C007D097F0980009000071205E7E08D
:2039C000FBA3E0FAA3E0F9EF419E855183855282A3E0FBA3E0FAA3E0F912020320E502617D
:2039E0001890000112021C24FE601F14605124FA600E14602F14700241B3240A60026118D6
:203A0000855183855282E4F061188551838552827401F090000A1205E7E0FBA3E0FAA3E01D
:203A2000F9E461158551838552827401F090000A1205E7E0FBA3E0FAA3E0F974046115853D
:203A400051838552827401F0A3E0FBA3E0FAA3E0F990000412021CFF7401A807088002C329
:203A600033D8FCFF115D7F0050027F01908629EFF07B017A867929C003C002C0019000046B
:203A80001205E7E0FBA3E0FAA3E0F91205189000071205E7E0FBA3E0FAA3E0F97401120233
:203AA0009E90000A1205E7E0FBA3E0FAA3E0F9740480628551838552827401F0A3E0FBA36A
:203AC000E0FAA3E0F990000312021CB4011A90862AE0FF90000412021CFE7401A806088072
:203AE00002C333D8FC4F801990862AE0FF90000412021CFE7401A806088002C333D8FCF4C6
:203B00005F90862AF090000A1205E7E0FBA3E0FAA3E0F9740512029E855183855282E0FFEE
:203B200090000D0205C3908428EFF0E4FF1211C9908429EFF0908428E014601014601A24C6
:203B4000027021908429E054F7F08018908429E04408F0E054FBF0800B908429E04408F086
:203B6000E04404F0908429E0FDE4FF021211EF24FE5403FF908428E054FC4FF0E0FD7F039A
:203B80000212117F031211C9EF2402FF22EF543F908428F0E0FD7F1C0212117C007D2A12DC
:203BA00002D274402FF974813EFA7B017E007F1A7D000205F4908440EFF02402547F75F08C
:203BC00080A4FFC374009FF974C795F0AF01A3F0A3EFF0908440E02402547F75F002A4FF37
:203BE000AEF024B5F974C73EAD01908443F0A3EDF074B42FF974C73E8982F583E030E10228
:203C0000C1AA908440E0C394044002C1AAE52A7074E52B641F706EE52824FEFFC3941950AB
:203C20000280027F198F12908441E0FEA3E0FFF5828E837401F08F828E83A3E4F0AF12FECD
:203C4000908442E02402FD908441E03400A805FC7D017B007A00792C12085E05120512C378
:203C600074409512FFE49400FE7D00E512FB7A00908441E0F8A3E02BFBEA38FAA9037B0171
:203C80001205F4C19C7E007F10C006C0077D00908440E075F02AA42430F9748135F0FA7B62
:203CA00001D007D0061205F4E52A541FF512908440E075F02AA42430F582E43481AF82FEC8
:203CC0007C0B7DDE7B2C90844BE512F0120008742C2512908445F0E52824FEC39512F51439
:203CE0007E007F08C006C0077D00908440E075F008A42410F9748135F0FA7B01D007D00606
:203D00001205F4E52AC4135407F512908440E075F008A42410F582E43481AF82FE7C0B7D94
:203D2000EE908445E0FB90844BE512F0120008D211908445E02512F0C3E5149512F5147ED4
:203D4000007F04C006C0077D00908440E075F004A42400F9748135F0FA7B01D007D0061229
:203D600005F4E52BC4135407F512908440E025E025E02400F582E43481AF82FE7C0B7DF666
:203D8000908445E0FB90844BE512F0120008D210908445E02512F0C3E5149512F514C3948A
:203DA00001405BE0F8E630E509908440E0FF7E00719B908445E0F8E6541F2410F5131514DF
:203DC000E514603A2513FFE433FED3EF942AEE648094805029E004F0AF147E00E0F97A00BD
:203DE0007B00C001908440E075F02AA425132430F9E43481A801FC7D01D00112085E908482
:203E000040E075F02AA42430F9748135F0FA7B01908442E02408FF908441E03400A807FCFD
:203E20007D017E007F2A12085E908441E0FEA3E0FFF5828E837401F08F828E83A3E4F08F9B
:203E4000828E83A3A304F08F828E83A3A3A3743CF00549E549700E054AE54A7008054BE5C5
:203E60004B7002054C908441E0FEA3E0FF2404F582E43EF583E549F0EF2405F582E43EF582
:203E800083E54AF0EF2406F582E43EF583E54BF0EF2407F582E43EF583E54CF0908443E0B3
:203EA000FEA3E0F5828E837440F022D310AF01C3C0D0908495EFF0C394045023EBD3944065
:203EC00040027B40AF037E00AA04A9057B0178207C857D0112085E908495E0908513F0D0DD
:203EE000D092AF22908440EFF09084927401F0A37484F0A37441F0EF75F024A42422F8E242
:203F000030E704547FF2227E007F517D007B017A8479411205F4E4F514908440E075F00F00
:203F2000A424BEF582E43484F583E5822514F582E43583F583E0F513606DFF121E808F82D0
:203F40008E83E0F512FF7E00C006C007AF13121E80EF2401FFE43EFAA9077B01C003C0020D
:203F6000908492E0FBA3E0FAA3E0F8AC02AD03D002D003D007D00612085E908493E485127E
:203F8000F012036FAF13121EAE908440E075F00FA424BEF582E43484F583E5822514F5823D
:203FA000E43583F583E4F00514E514C394025002E119AF287E00908492E0FBA3E0FAA3E08C
:203FC000F8AC02AD037B007A00792A12085E908493E48528F012036F908440E024FEFF7CFE
:203FE000847D41908492A3A3E0C39441FBC1ABEF700DED7F0070027F01EF24FFB39212225F
:204000007F60227F60227F60227F60227F6022E4F517E5172402547F75F002A47AC724B591
:20402000F974C735F0AF019084A4F0A3EFF0AF1712181D500F9084A4E0FEA3E0F5828E8340
:20404000E06001F00517E517C3940440C522E4F509750802E50875F024A42422F8E230E0EA
:204060000205090508E508B406EAAF0922AE07EE75F024A42422F8E220E002D32290842895
:204080007403F0114EA3EFF0AF067B017A8479289085D97402F0A314F0121BB3EF24FF22F9
:2040A0007E007F067D007B007A00796E0205F4D310AF01C3C0D0AC07E4F54EEC75F00FA4E5
:2040C00024BEF582E43484F583E582254EF582E43583F583E0F54D601FFF121EAEEC75F03F
:2040E0000FA424BEF582E43484F583E582254EF582E43583F583E4F0054EE54EC394024048
:20410000BAD0D092AF22750802E50875F024A42422F8E24FF20508E508B406ED22750802A6
:20412000E50875F024A42422F8E220E003AF08220508E508B406E97F0022908428EFF0BF51
:204140000104311D80027F0090843EEFF078297C847D017BFE7A0079347E007F0812085E9E
:2041600078317C847D017B017A86790F7E007F0512085E7E007F087D007B017A84793612DD
:2041800005F4908431E0FF90843EE0FEEF4E908431F0908428E0FF7B017A8479299085D93B
:2041A0007415F0E4A3F0021BB3908428EFF07E007F087D007B017A8479291205F49084293E
:2041C0007404F0E4A3F09000041204CB90842D1204DB908428E0FF7B017A8479299085D934
:2041E0007408F0A37401F0021BB39084A57405F07B017A8479A59085D97401F0A3F0021BBE
:20420000B3EF24029084A4F075F024A42422F8E230E04230E53FE0FF31EA9084A4E075F044
:204220000FA424B1F9748435F0FA7B01C001E075F024A42400F99085AE74FEF0A3E4F0A340
:20424000E9F0D00151569084A4E075F024A42422F8E254DFF222D310AF01C3C0D09085AB3B
:20426000EBF0A3EAF0A3E9F051D19085B1EFF0700B713151D19085B1EFF060509085B274D4
:20428000F0F078B37C857D019085ABE0FBA3E0FAA3E0F97E007F0812085E78BB7C857D01D1
:2042A0009085AEE0FBA3E0FAA3E0F97E007F1012085EA22192209085B1E090861CF0A3748E
:2042C00001F0A37485F0A374B2F071D1D0D092AF22A221921F7A01A21F921D90863DEAF0D7
:2042E00071F15003AF02220AEAB415EB7F0022D310AF01C3C0D0C21F51D5EF64016004C286
:204300001E7117D21F51D5EF64016004D21E7117C221D0D092AF227E00301E027E027F00FD
:20432000E42FFFEE3474FE7C027D001203390227B4A221B3921F51D5EF64016007A221B333
:20434000921E71179086217401F0908620F0908620E0FFD394145070A221921C90863CEF61
:20436000F09118908622EEF0A3EFF0F5828E83E493FFB4FF028051EF64F07044908623E078
:204380002401FF908622916A908620E0B50731A221B39220908621E0FF04F090861CEFF080
:2043A000908622E0FEA3E0AA06F990861D74FFF0A3EAF0A3E9F071D1908621E064146008F3
:2043C000908620E004F08086A221921E7117B22122A220921C90861C911390861DE0FBA3E6
:2043E000E0FAA3E0F99085D0E4F0A37419F00227D77B19A21D921C90863D91130FEFAC06E6
:2044000070010E14F5828C83E493F46002C322DBEBD322E090863CF090863CE024FFFFE4BC
:2044200034FFFE7C007D191202D27C00301C027C027D00E42DFDEC3474CD2FFFED3EFE22A6
:20444000D310AF01C3C0D09172EF6016A221921C9114908447EEF0A3EFF02409FFE43EFEF1
:204460008003E4FEFFD0D092AF22E03400FAA9077BFF9085FFEBF0A3EAF0A3E9F0A374148A
:20448000F0A221921C9086029113908603EEF0A3EFF0F5828E83E493B4F02D908604E02498
:2044A00001FF908603E03400A807FC7DFF9085FFE0FBA3E0FAA3E0F97E007F0812077EEF35
:2044C0007006908602E0FF22908602E014F070B1FF22D221A221921D90863D7401F071F190
:2044E0005002C22122908447EFF07E007F05C006C0077D00E075F024A42418F9E4FA7BFE86
:20450000D007D0061205F47E007F05C006C0077D00908447E075F024A4241DF9E4FA7BFEDE
:20452000D007D0061205F4908447E075F024A42421F87480F222D204EF24FF920022EF2467
:2045400002FF75F024A42422F8E230E00D4402F2EF75F024A42423F8E4F222747A2FF8E66A
:20456000C37001D322D310AF01C3C0D0AD07C20D747A2DF8E6FC601DFF121C8D8F828E835B
:20458000E0FF747A2DF8A607747A2DF8E6700674742DF8E4F6AF04D0D092AF22A807E204DB
:2045A000F27029E804F8E204F27021EF2402F8E204F27018EF2403F8E204F2700FEF24043A
:2045C000F8E2FE04547FFDEE54804DF222908440EFF0A805E2FF5407F512EB5470C4540F13
:2045E000F513B51202C322EF54F84513FF908440E0FEF8EFF2ED04F97A007BFEEE04F87C25
:20460000007DFE7E007F0412085EE513C395125037908440E0F8E22408F26513702AE80493
:20462000F8E204F27022E0FF2402F8E204F27018EF2403F8E204F2700FE02404F8E2FF0471
:20464000547FFEEF54804EF2D3229085EEA3A3A3E05401FFE4FEFDFC120469EF5401FFE4F0
:20466000FEFDEC54D0FCC004C005C006C0079085EEE0FCA3E0FDA3E0FEA3E0FF780112042C
:2046800088D003D002D001D000EF6BFFEE6AFEED69FDEC68FC9085EE1204DB9085EEE0FC27
:2046A000A3E0FDA3E0FEA3E0FF221202B07F03908432EFF0D14A908432E014F070F622908D
:2046C0008428EBF0A3EAF0A3E9F090842E740BF0E92401F9E43AFAC002C00178EE7C857D23
:2046E00001D001D0027E007F0412085E9085EEE0F8A3E0F9A3E0FAA3E0FBC001C002C00305
:20470000908428E0FBA3E0FAA3E0F9120203FFD003D002D001EB6FFFEAFEE9FDE8FC9085DD
:20472000EE1204DBE4FFFEFDFC9085EEE0F8A3E0F9A3E0FAA3E0FBC3120477700A9085EEA1
:204740001204E700000001E490842FF0D14AC00790842EE0FBE4FAF9F8D0071203D790849F
:204760002EE0FEA3E0FD8EF0A42B2402FF90842BE0FBA3E0FAA3E0F98D82758300EFD1AAB7
:2047800090842FE004F0E0C3940740C090842F7401F090842FE0FFC394075047E0FE24FF04
:2047A000FDE434FFFC90842BE0FBA3E0FAA3E0F98D828C8312021CFD8E8275830012021C53
:2047C000C39D908430F0C394055010E0FEC374059EFE8F82758300EE12026B90842FE00436
:2047E000F080AF90842BE0FBA3E0FAA3E0F990000612021CD3945040089000067450120254
:20480000B0E490842FF090842FE0FFC39407504290842BE0FBA3E0FAA3E0F98F82758300A3
:2048200012021CFFC39403500D90842FE0F58275830074038011EFD39450400E90842FE0E1
:20484000F58275830074501202B090842FE004F080B490842F7406F012464AC006C00790AA
:20486000842FE02401FFE433AB07FAE4F9F8D007D0061203D7908430EBF090842BE0FBA374
:20488000E0FAA3E0F990842FE0FFF58275830012021CFE908431F0908430E0FDF58275833E
:2048A0000012021C8F827583001202B08D82758300EE1246AA90842FE014F0D3940150988D
:2048C00022E4FFD2FB740B2FF582E433F583E0F508C2FB740F2FF582E43486F583E508F09C
:2048E0000FEFB405DE90860FE054F8F090842BE4F0A37400F0A37418F07B017A86790F02A3
:2049000046BF2013051210FAD21330140512113BC214229084A4EEF0A3EFF0A37410F090FB
:2049200084A6E0900C3093F460199084A4E0FEA3E0AA06F97B0178DF7C857D017E007F058B
:2049400002085E9084A6E014F070D47E0C7F319084A4E0FCA3E0AA04F97B019085D0E4F0E0
:20496000A37410F00227D7E4FFD2FB740B2FF582E433F583E0F508C2FB74E42FF582E4340C
:2049800085F583E508F00FEFB405DE2280D99085DFE004F07016A3E004F07010A3E004F071
:2049A000700AA3E004F07004A3E004F02280DFD310AF01C3C0D0ED70024167D39410AF0582
:2049C00040027F10908635EFF0318EE4F5F59086367410F0908636E0900C3093F5F1908608
:2049E00036E014F070EEF5F67405F0908636E024E3F582E43485F583E0F5F3908636E01424
:204A0000F070E87405F0908636E024DEF582E43485F583E0F5F3908636E014F070E8740661
:204A2000F0E4F5F3908636E014F070F575E811E5E820E0FB908635E0A3F0908636E07E0087
:204A400024FFF582EE34FFF583E5F31202B0908636E014F070E4908635E0FFC3ED9FFDEF9E
:204A600029F9EE3AFA21B6D0D092AF22E4F54F7D01FCAF05121E808F828E83E54FF08D4FF0
:204A80000DBD00010CED64114C70E722516CE4F5507D01FCAF05121C8D8F828E83E550F002
:0E4AA0008D500DBD00010CED64154C70E72229
:00000001FF
